:0A134E000001020203030404050578
:10081000E4F52CF52BF52AF529C203C200C202C269
:10082000011212FC7E0F7F4B8E0A8F0B75120F7513
:10083000135D75080F75096775100F7511877514AD
:100840000F7515A7EE54E0700302095E752D007553
:100850002E808E2F8F30C374F99FFF740F9ECF248C
:1008600002CF3400FEE48F288E27F526F525F524E7
:10087000F523F522F521AF28AE27AD26AC25AB2414
:10088000AA23A922A821C312051F502AE52E252438
:10089000F582E52D3523F58374CDF0E4FAF9F8E51A
:1008A000242401F524EA3523F523E93522F522E84D
:1008B0003521F52180C0E4F524F523F522F521AF9B
:1008C00028AE27AD26AC25AB24AA23A922A821C394
:1008D00012051F5037E5302524F582E52F3523F525
:1008E00083E0FFE52E2524F582E52D3523F583EF02
:1008F000F0E4FAF9F8E5242401F524EA3523F52398
:10090000E93522F522E83521F52180B3852D0A85C8
:100910002E0B744B2480FF740F34FFFEC3E5139F2E
:10092000F513E5129EF512C3E50D9FF50DE50C9E3E
:10093000F50CC3E50F9FF50FE50E9EF50EC3E50917
:100940009FF509E5089EF508C3E5119FF511E5102F
:100950009EF510C3E5159FF515E5149EF514D2E834
:1009600043D82090E668E04409F090E65CE0443D1E
:10097000F0D2AF90E680E054F7F0538EF8C2033027
:100980000105120576C2013003291213835024C2D7
:100990000312125E20001690E682E030E704E020A9
:1009A000E1EF90E682E030E604E020E0E412120697
:0809B000121385120FFF80C72E
:0109B800221C
:1005760090E6B9E070030206521470030206FB24EB
:10058600FE700302079024FB700302064C147003EE
:1005960002064614700302063A147003020640244B
:1005A6000560030207FC121387400302080890E661
:1005B600BBE024FE602C14604724FD6016146031F5
:1005C60024067066E50A90E6B3F0E50B90E6B4F013
:1005D600020808E51290E6B3F0E51390E6B4F002DF
:1005E6000808E50C90E6B3F0E50D90E6B4F00208D5
:1005F60008E50E90E6B3F0E50F90E6B4F0020808C1
:1006060090E6BAE0FF121232AA06A9077B01EA4970
:100616004B600DEE90E6B3F0EF90E6B4F0020808FA
:1006260090E6A0E04401F002080890E6A0E044014C
:10063600F0020808121323020808121360020808C1
:1006460012135802080812131102080812138940DF
:100656000302080890E6B8E0247F602B14603C246F
:100666000260030206F1A200E433FF25E0FFA202C6
:10067600E4334F90E740F0E4A3F090E68AF090E68A
:100686008B7402F0020808E490E740F0A3F090E6CD
:100696008AF090E68B7402F002080890E6BCE054FB
:1006A6007EFF7E00E0D3948040067C007D018004BE
:1006B6007C007D00EC4EFEED4F244EF58274133E19
:1006C600F583E493FF3395E0FEEF24A1FFEE34E6D5
:1006D6008F82F583E0540190E740F0E4A3F090E6C2
:1006E6008AF090E68B7402F002080890E6A0E044D7
:1006F60001F002080812138B400302080890E6B8BE
:10070600E024FE601D2402600302080890E6BAE0B9
:10071600B40105C20002080890E6A0E04401F00218
:10072600080890E6BAE0705990E6BCE0547EFF7E79
:1007360000E0D3948040067C007D0180047C007D2F
:1007460000EC4EFEED4F244EF58274133EF583E425
:1007560093FF3395E0FEEF24A1FFEE34E68F82F59A
:1007660083E054FEF090E6BCE05480FF131313546C
:100776001FFFE0540F2F90E683F0E04420F00208BC
:100786000890E6A0E04401F0807812138D50739033
:10079600E6B8E024FE60202402706790E6BAE0B472
:1007A6000104D200805C90E6BAE06402605490E6F0
:1007B600A0E04401F0804B90E6BCE0547EFF7E0052
:1007C600E0D3948040067C007D0180047C007D009F
:1007D600EC4EFEED4F244EF58274133EF583E49302
:1007E600FF3395E0FEEF24A1FFEE34E68F82F5831A
:1007F600E04401F0800C120B07500790E6A0E0449D
:0908060001F090E6A0E04480F04E
:01080F0022C6
:03003300020FFBBE
:040FFB0053D8EF32A6
:100F4B001201000200000040560400B20000010232
:100F5B0000010A0600020000004001000902200007
:100F6B00010100A0320904000002FF000000070588
:100F7B00020200020007058602000200090220009F
:100F8B00010100A0320904000002FF000000070568
:100F9B000102400000070581024000000403090420
:100FAB001E0341004E0041004C004F004700200043
:100FBB0044004500560049004300450053003003F0
:100FCB00410044003500350037003000200045005B
:100FDB00560041004C0055004100540049004F00A1
:100FEB004E00200042004F00410052004400000020
:1012060090E682E030E004E020E60B90E682E030F3
:10121600E119E030E71590E680E04401F07F147EA6
:0C1226000012115290E680E054FEF0220D
:10125E0090E682E044C0F090E681F0438701000002
:04126E00000000225A
:02123200A9070A
:10123400AE14AF158F828E83A3E064037017AD01E3
:1012440019ED7001228F828E83E07C002FFDEC3E2D
:09125400FEAF0580DF7E007F0083
:01125D00226E
:101152008E318F3290E600E054187012E53224018D
:10116200FFE43531C313F531EF13F532801590E604
:1011720000E05418FFBF100BE53225E0F532E531EF
:1011820033F531E5321532AE31700215314E60055C
:0611920012127280EE2231
:101272007400F58690FDA57C05A3E582458370F98F
:011282002249
:03004300021000A8
:0300530002100098
:10100000021283000212E6000212D0000212A200B5
:10101000021198000211CF0002138F0002139000FA
:101020000213910002139200021393000213940022
:101030000213950002139600021397000213980002
:10104000021399000213900002139A0002139B00EE
:1010500002139C0002139D0002139E0002139F00C6
:101060000213A000021390000213900002139000DC
:101070000213A1000213A2000213A3000213A40092
:101080000213A5000213A6000213A7000213A80072
:101090000213A9000213AA000213AB000213AC0052
:1010A0000213AD000213AE000213AF000213B00032
:0810B0000213B1000213B200AB
:1012FC00D20090E600E054E74410F075B2F7758028
:05130C00F475B303229B
:010FFF0022CF
:02138300D32273
:02138500D32271
:02138700D3226F
:0813580090E6BAE0F55ED32235
:1013110090E740E55EF0E490E68AF090E68B04F019
:02132100D322D5
:0813600090E6BAE0F55CD3222F
:1013230090E740E55CF0E490E68AF090E68B04F009
:02133300D322C3
:02138900D3226D
:02138B00D3226B
:02138D00D32269
:100B070090E6B9E02426B40A004003020C41900B9A
:100B17002375F003A4C58325F0C58373020C1E0259
:100B27000C23020C0F020B41020C19020C14020CCD
:100B370032020C37020C28020C2D90E6B8E0644014
:100B4700705B90E68AF090E68BF0F5337534189079
:100B5700E6BCE0FFE4FCFDFEFBFA7901F81204C2F3
:100B6700A804A905AA06AB0790E6BBE0FE90E6BA83
:100B7700E07C002400FFEC3EFEE4FDEB2FF538EAB5
:100B87003EF537ED39F536EC38F53585383E85379E
:100B97003D85363CF53BAF34AE33120E8F90E6B849
:100BA700E064C06003020C4190E6A0E020E1F9E4B4
:100BB700F53190E6BAE0FF90E6BCE0753300F53416
:100BC700E4FCFDFEFBFA7901F81204C2A804A905AA
:100BD700AA06AB07E4FCFDFEEB2531F538EE3AF546
:100BE70037ED39F536EC38F535AF38AE37AD36FC7D
:100BF70085343DE4F53E1209B98F32E490E68AF078
:100C070090E68B7402F0803212136C802D121368F9
:100C170080281213358023121370801E12137480DC
:100C270019121378801412137C800F1212BA800ADB
:0B0C370090E6BAE0FF7E00121380C3BD
:010C4200228F
:031380008F802239
:0809B9008F3C8E3B8D3A8C3916
:1009C100AC3DE412012A8F558E548D538C527F0019
:1009D1007E007D007C40120D78E4FBFAF97840122C
:1009E100008312015E8F498E488D478C46438010EB
:1009F1005380DF5380BF5380EFE53F25E02442F869
:100A0100E4F608F6F540E53C5549FFE53B5548FE5F
:100A1100E53A5547FDE5395546FCAB49AA48A94792
:100A2100A846C312051F700543804080035380BF51
:100A3100AF49AE48AD47AC4678011205308F498EBB
:100A4100488D478C46438020E5805408F5411313B7
:100A510013541FF541AF4DAE4CAD4BAC4A7801126A
:100A61000543A804A905AA06AB07E4EB4541F54DEA
:100A7100EAF54CE9F54BE8F54A5380DFE4FF0FBF97
:100A810004FC0540E54064186003020A07E54DF5E2
:100A91004DE54CF54CE4F54BF54AAF4DE53F25E00E
:100AA1002442F8A64C08A607E53F25E02442F8E6D3
:100AB10008E6FFAE3E053E74402EF582E434E7F5CC
:100AC10083EFF0E53F25E02442F8E6FE08E6EEFF7D
:100AD100AE3E053E74402EF582E434E7F583EFF037
:100AE100E53F25E02442F8E6FE08E6EEFFAE3E05CE
:100AF1003E74402EF582E434E7F583EFF05380DF56
:050B0100438010AF3E2F
:010B060022CC
:040E8F008E398F3ACF
:100E9300AC39AD3AEC1201258F558E548D538C52DB
:100EA3007F007E007D007C40120D78E4FBFAF97828
:100EB3004012008312015E8F428E418D408C3F535E
:100EC30080EFE4F544C3E544953AE5396480F8746A
:100ED30080985053E53E5542FFE53D5541FEE53CC4
:100EE3005540FDE53B553FFCAB42AA41A940A83F15
:100EF300C312051F700543804080035380BFAF4278
:100F0300AE41AD40AC3F78011205308F428E418D2A
:100F1300408C3F438020E4F5430543E543B404F9A3
:100F23005380DF0544809EE4F5430543E543B40461
:100F3300F94380104380104380105380BFE4F5438E
:070F43000543E543B404F986
:010F4A002284
:0C1335005380FBE4FF0FBF04FC43800466
:011341002289
:041368005380FE228E
:04136C004380012297
:041370004380022292
:041374005380FD2283
:041378004380042288
:04137C005380FB227D
:1012BA005380FD4380045380BF5380DF4380104333
:0612CA00800143800222B6
:10128300C0E0C083C08290E6B5E04401F0D20153D0
:0F12930091EF90E65D7401F0D082D083D0E0320D
:1012D000C0E0C083C0825391EF90E65D7404F0D00B
:0612E00082D083D0E03251
:1012E600C0E0C083C0825391EF90E65D7402F0D0F7
:0612F60082D083D0E0323B
:10119800C0E0C083C08290E680E030E70E85080C8E
:1011A80085090D85100E85110F800C85100C851191
:1011B8000D85080E85090F5391EF90E65D7410F0C8
:0711C800D082D083D0E03299
:1012A200C0E0C083C082D2035391EF90E65D740820
:0812B200F0D082D083D0E032BD
:1011CF00C0E0C083C08290E680E030E70E85080C57
:1011DF0085090D85100E85110F800C85100C85115A
:1011EF000D85080E85090F5391EF90E65D7420F081
:0711FF00D082D083D0E03262
:01138F00322B
:01139000322A
:011391003229
:011392003228
:011393003227
:011394003226
:011395003225
:011396003224
:011397003223
:011398003222
:011399003221
:01139A003220
:01139B00321F
:01139C00321E
:01139D00321D
:01139E00321C
:01139F00321B
:0113A000321A
:0113A1003219
:0113A2003218
:0113A3003217
:0113A4003216
:0113A5003215
:0113A6003214
:0113A7003213
:0113A8003212
:0113A9003211
:0113AA003210
:0113AB00320F
:0113AC00320E
:0113AD00320D
:0113AE00320C
:0113AF00320B
:0113B000320A
:0113B1003209
:0113B2003208
:100080000201D4EC5D046005E8590470030201CA62
:10009000120195580460F6EC4860F2EC7004FDFE25
:1000A000FF22C860DB2481C85009C3986002500653
:1000B0000201D19850CAF582E9294B4A7005AB82FA
:1000C0000201C075F0007C1A7880C3EF9BEE9AEDB8
:1000D00099400DC3EF9BFFEE9AFEED99FDE842F0CB
:1000E000DC23ACF0D0E0FFD0E0FED0E0FDAB82201E
:1000F000E7101BEB60BAEC2CFCEF33FFEE33FEEDA8
:1001000033FD0201ACE803F830E705C0F075F000FC
:10011000EF2FFFEE33FEED33FD40B830E7C280AA8B
:1001200075F020800E75F010800575F0087D007E5A
:10013000007F003392D530D503120511EC33401007
:10014000EF33FFEE33FEED33FDEC33FCD5F0ED2263
:0E015000E5F0247EA2D513CC92E7CDCEFF229F
:10015E00EDD2E7CD33EC3392D524814006E4FFFE99
:10016E00FDFC22FCE4CFCECDCC24E0501174FF80F8
:10017E00EDC3CC13CCCD13CDCE13CECF13CF047095
:07018E00F030D5DE0205117F
:100D78008F518E508D4F8C4EE4FFFE7D807C3FABB3
:100D880051AA50A94FA84E1203F77009AF51AE509F
:100D9800AD4FAC4E22AF51AE50AD4FAC4E1201DF4D
:100DA800FBAF55AE54AD53AC521201DFFFBF010883
:100DB800E4FFFE7D807C3F22EF64046022EB640444
:100DC800601DBB0127E4FFFEFDFCAB55AA54A953E7
:100DD800A8521203F760084006E4FFFEFDFC2274E7
:100DE800FFF555F554F553F552020E86E4F556F520
:100DF80057FFFEFDFCAB51AA50A94FA84E1203F7AE
:100E0800504BAF55AE54AD53AC5212015E8E568F57
:100E180057AC56AD57EC120125C8ECC8C9EDC9CA84
:100E2800EECACBEFCBAF55AE54AD53AC521201FC6A
:100E3800E4FBFAF9F81203F770A5AF51AE50AD4FC5
:100E4800AC4E1204648F518E508D4F8C4EAF51AE04
:100E580050AD4FAC4E120C77AB55AA54A953A852BB
:100E68001202F11210F08F558E548D538C52E557A3
:100E780030E00B1204648F558E548D538C52AF554D
:070E8800AE54AD53AC522241
:10019500E9D2E7C933E833F892D5EDD2E7CD33ECB0
:0701A50033FC5002B2D52229
:1001AC00EC30E7100FBF000C0EBE00080DBD0004B4
:1001BC000BEB6014A2D5EB13FCED92E7FD2274FF60
:1001CC00FCFDFEFF22E480F8A2D574FF13FC7D80B9
:0301DC00E480EFCD
:1001DF00ED33EC33601004700FED547F7005740233
:0A01EF0092E2227404220422E422AA
:1001F9000201CAE86480F8E933E83360110460F069
:10020900ED33EC337009E8FCE9FDEAFEEBFF22046B
:1002190060DED3EB9FEA9EE99DE8C2E78CF0C2F766
:1002290095F0400CE8CCF8E9CDF9EACEFAEBCFFB32
:1002390012019585D0F05804700320D5B3E80470F5
:10024900075002B2D50201D492D5EC0460F7E4CC90
:10025900C0E0C398F8603B94186008400DD0E0FBFB
:100269000201ACE4FBFAC9FC8028E830E406E4C9E1
:10027900FBE4CAFCE830E305E4C9CACBFCE854074F
:100289006010F8C3E913F9EA13FAEB13FBEC13FC5A
:10029900D8F130F52FC3E49CFCEF9BFFEE9AFEEDFD
:1002A90099FDD0E0FBEF4E4D4C701222DB030201A9
:1002B900D1EC2CFCEF33FFEE33FEED33FDED30E7EF
:1002C900EB0201ACEF2BFFEE3AFEED39FDD0E0FB7E
:1002D90050130BBB00030201D4ED13FDEE13FEEF27
:0802E90013FFEC13FC0201AC51
:1002F100EC4D6011E8497017ED33EC3304600DE407
:10030100FCFFFEFD22E933E8330470F80201CA1252
:10031100019558046009E4CC248150062850090253
:1003210001D42840030201D1C0E0EB4A7044B980F6
:1003310006D0E0FB0201C0EF4E701CBD8008EBFF50
:10034100EAFEE9FD80EBE98DF0A4FEE5F00203DAB7
:10035100E9CDF9EAFEEBFFEF89F0A4FCE5F0CE89E7
:10036100F0A42EFFE435F0CD89F0A42DFEE435F0A4
:100371008067EF4E7005BD80D780C3EF8BF0A4ACD2
:10038100F0EE8BF0A42CFCE435F0F8EF8AF0A42C0D
:10039100E5F038FCE433CB8DF0A42CFCE5F03BF820
:1003A100EE8AF0A42CFCE5F038F8E433CF89F0A410
:1003B1002CFCE5F038CF3400CE89F0A42FFFE5F016
:1003C1003EFEE433C98DF0A42EFEE5F039CD8AF06E
:1003D100A42FFFE5F03EFEE43DFD33D0E0FB5007E6
:1003E1000BBB000F0201D4EC2CFCEF33FFEE33FE0C
:0603F100ED33FD0201AC3A
:1003F70074F8CC6480CCC86480C8F582046043C3B9
:10040700EB9FF5F0EA9E42F0E99D42F0E89C45F04B
:1004170060305018E5825FFFE582F42B5582FB5070
:10042700210ABA001D09B90019088016E5825BFB8D
:10043700E582F42F5582FF50090EBE00050DBD0061
:10044700010CC3EB9FF5F0EA9E42F0E99D42F0E80C
:0D0457009C45F06007CC4820E701B3EC2283
:10046400ED33EC33600A047003BD8004ECB2E7FCA6
:010474002265
:1010B80033DA929E35B16011377FE5FE3921848994
:1010C8003AAEC3FF3C1D955B3D6358473E75FDF046
:1010D8003F3172183F800000C2D50201D40201CA14
:1010E800BD80FA50F30201D1ED33EC330460F17B9B
:1010F8003B7AAA79B8783F1202F1ED33EC3392D5F6
:10110800247B5011A2D570DB500BED448024045091
:1011180004A2D580CEEFFBEEFAEDF9ECF812015EF1
:10112800EFF582F404FC12012A120200C08290102A
:10113800B87409120484ED33CC33D0F092D525F07D
:0A114800A2D57001C313CC13FD22E1
:100C43003E9248DA3ECCCCCD3F2AAAAB400000000E
:100C53003F8000003F9837F03FB504F33FD744FC93
:100C63003E3172173EB172173F0515913EDE5BD9D7
:100C7300D2058002C205EDD2E7F8CD33EC33047020
:100C83000BBD800592D50201D40201CA40FBD314E7
:100C930060F2F5F07C3FEE7A00C39496C8948B40E3
:100CA300230AC89469C8941A401A0AC89468C89455
:100CB3001F40110AC8945AC89425400805F07A00C9
:100CC300CDC2E7CDC0F08C588D598E5A8F5BEA2385
:100CD30023C0E02453F582E4340CF5831205661235
:100CE3000200ECC0E0EDC0E0EEC0E0EFC0E01205B2
:100CF30056A858A959AA5AAB5B1201FCD0E0FBD005
:100D0300E0FAD0E0F9D0E0B2E7F81200838C588D16
:100D1300598E5A8F5B900C437403120475A858A91B
:100D230059AA5AAB5B1202F1D0E0600F245FF5823F
:100D3300E4340CF5831205661202008C588D598E2B
:100D43005A8F5BD0E0C3947FFDE49400FC1201252D
:100D53007B187A727931783F1202F1A858A959AAFF
:100D63005AAB5B12020030050B7BD97A5B79DE78D4
:050D73003E1202F12216
:10047500C0E0EFFBEEFAEDF9ECF81202F1D0E0F591
:10048500F0EFFBEEFAEDF9ECF8120556A3A3A3A3E2
:10049500E8C0E0E9C0E0EAC0E0EBC0E0C0F012026D
:1004A500F1120566A3A3A3A3120200D0F0D0E0FBCE
:0D04B500D0E0FAD0E0F9D0E0F8D5F0D42284
:03000000021342A6
:0C134200787FE4F6D8FD75817D0208106C
:1004C200E88FF0A4CC8BF0A42CFCE98EF0A42CFCD9
:1004D2008AF0EDA42CFCEA8EF0A4CDA8F08BF0A457
:1004E2002DCC3825F0FDE98FF0A42CCD35F0FCEBB6
:1004F2008EF0A4FEA9F0EB8FF0A4CFC5F02ECD397B
:0F050200FEE43CFCEAA42DCE35F0FDE43CFC22E7
:0E051100C3E49FFFE49EFEE49DFDE49CFC22FB
:10051F00EB9FF5F0EA9E42F0E99D42F0E89C45F032
:01052F0022A9
:10053000E8600FECC313FCED13FDEE13FEEF13FFA9
:03054000D8F122CD
:10054300E8600FEFC333FFEE33FEED33FDEC33FC16
:03055300D8F122BA
:10055600E493FC740193FD740293FE740393FF22EB
:10056600E493F8740193F9740293FA740393FB22EB
:00000001FF
